:10079E00323031362D30382D31362020545545002B
:1007AE002031363A35393A353000204D4F4E2054EF
:1007BE00554520574544205448552046524920530C
:0707CE0041542053554E0079
:10089A00010D17010C3B010A32020807CC020E00B7
:0908AA00020210001D02130001FE
:1007D500C2B68F807F057E001207E6D2B47F057E04
:0107E5000013
:1007E600D3EF9400EE940040147D6E7C00ED1D70F6
:0D07F600011CED4C70F7EF1F70E61E80E354
:0108030022D2
:0E08B400AD147F0C1208047F8E1208C27F0F55
:0808C200C2B51207D5C2B42231
:0408DA00EB2430FFDC
:0808DE00D2B51207D5C2B42205
:10075100C2B47F381208C27F0C1208C27F06120889
:10076100C27F011208C27F801208C2E4FBEB90072E
:100771009E93FF1208DE7F027E001207E60BBB0F7D
:10078100EC7FC31208C2E4FBEB9007AE93FF1208A3
:0C079100DE7F027E001207E60BBB0AECC4
:01079D002239
:1008CA00758901758C3C758AB0D2AFD2A9D28C22B7
:04085700AD0A7F0A5D
:10085B00ED75F00A84FBED75F00A84AAF0EF24C065
:0E086B00FF1208C21208DAEA2430FF0208DE8B
:02080400AB0542
:10080600EF2480FF1208C2E4FA75F004EBA42AF57F
:1008160082E435F0F583E58224B5F582E583340775
:0C082600F583E493FF1208DE0ABA03DD3C
:0108320022A3
:0605C300AD11AC107F0831
:0605C9008F1D8D828C8362
:1005CF00D3E58294E8E583940340647C037DE8AF30
:1005DF0082AE831206FC8E1E8F1F7C007D64AF825D
:1005EF00AE831206FC7C007D0A1206FC8C208D2146
:1005FF007C007D0AAF82AE831206FC7C007D0A125E
:10060F0006FC8C228D237C007D0AAF82AE831206FE
:10061F00FCAA04AB05E51D2480FF1208C2E51F24C8
:10062F0030FF1208DEE5212430FF1208DE80267C21
:10063F00007D0AAF82AE831206FC8E228F23AE831B
:10064F00AF827C007D0A1206FCAA04AB05E51D24CF
:10065F0080FF1208C2E5232430FF1208DE1208DAE9
:01066F002268
:10087900EF54037009EF75F06484E5F0700D7E00A4
:100889007C017D901206FCED4C70037F01227F00F4
:01089900223C
:10000E00E515701A20B7177F05FE1207E620B70E0A
:10001E0030B7FDC28CE515700505151208BBE51548
:10002E006401705F20B7187F05FE1207E620B70F38
:10003E0030B7FDE515B4010705157F891208BD20FF
:10004E00A01F1207E220A01930A0FD0514E51470C0
:10005E00020513640845137005F513751401120893
:10006E00B420A41F1207E220A41930A4FDE5141534
:10007E001470021513E51445137005F51375140766
:10008E001208B4E515640260030201EC20B7187F74
:10009E0005FE1207E620B70F30B7FDE515B40207CF
:1000AE0005157F861208BD30A3030201501207E228
:1000BE0030A30302015030A3FD0511E511700205B6
:1000CE0010E50F6401450E6030E50F6403450E60C8
:1000DE0028E50F6405450E6020E50F6407450E60A8
:1000EE0018E50F6408450E6010E50F640A450E60B2
:1000FE0008E50F640C450E700AE51164204510707A
:10010E00398032E50F6402450E7022AF091208796C
:10011E00BF010AE511641E4510701F8018C3E5115A
:10012E00941DE51094004012751000800AE51164CC
:10013E001F45107005F5107511011205C37F891248
:10014E0008BD30A4030201EC1207E230A403020141
:10015E00EC30A4FDE511151170021510E50F6401C8
:10016E00450E6030E50F6403450E6028E50F64050B
:10017E00450E6020E50F6407450E6018E50F640814
:10018E00450E6010E50F640A450E6008E50F640C1D
:10019E00450E700DE5114510703CF51075111F8060
:1001AE0035E50F6402450E7022AF09120879BF01C2
:1001BE000DE5114510701FF51075111D8018E51114
:1001CE0045107012F51075111C800BE5114510705D
:1001DE0005F51075111E1205C37F891208BDE515B0
:1001EE006403707520B7187F05FE1207E620B70F5F
:1001FE0030B7FDE515B4030705157F831208BD2042
:10020E00A22A1207E220A22430A2FD050FE50F70EC
:10021E0002050E640D450E7005F50E750F01AD0F3E
:10022E00AC0E7F051205C97F861208BD20A42A12C6
:10023E0007E220A42430A4FDE50F150F7002150E61
:10024E00E50F450E7005F50E750F0CAD0FAC0E7F5C
:10025E00051205C97F861208BDE515640460030208
:10026E0002F020B71B7F05FE1207E620B71230B74B
:10027E00FDE4F515D28C7F831208C27F0C1208C2E2
:10028E0020A12D1207E220A12730A1FD0509E509C5
:10029E0070020508B4020BE508B408067508077568
:1002AE0009CCAD09AC08E4FF1205C97F831208BD65
:1002BE0020A42F1207E220A42930A4FDE509150978
:1002CE0070021508E509B4CC0BE508B407067508ED
:1002DE0008750902AD09AC08E4FF1205C97F831247
:0302EE0008BD2226
:10047300E512701C20B0197F05FE1207E620B010AC
:1004830030B0FDC28CE512700705127FCB1208BD98
:10049300E5126401705720B0187F05FE1207E620AD
:1004A300B00F30B0FDE512B4010705127FC8120882
:1004B300BD20B31B1207E220B31530B3FD050AE5D7
:1004C3000AB43C03E4F50A1208577FCB1208BD2097
:1004D300A41B1207E220A41530A4FD150AE50AB4F3
:1004E300FF03750A3B1208577FCB1208BDE5126460
:1004F30002705F20B0187F05FE1207E620B00F30B0
:10050300B0FDE512B4020705127FC51208BD20B283
:100513001F1207E220B21930B2FD050CE50CB43C02
:1005230003E4F50CAD0C7F0712085B7FC81208BD0E
:1005330020A41F1207E220A41930A4FD150CE50C1A
:10054300B4FF03750C3BAD0C7F0712085B7FC81229
:1005530008BDE5126403706720B0207F05FE120713
:10056300E620B01730B0FDE512B4030FE4F512D264
:100573008C7FCB1208C27F0C1208C220B11F120756
:10058300E220B11930B1FD050DE50DB41803E4F512
:100593000DAD0D7F0412085B7FC51208BD20A41F9B
:1005A3001207E220A41930A4FD150DE50DB4FF03D5
:1005B300750D17AD0D7F0412085B7FC51208BD22B0
:100833001207511208CAE512700AE5157006120470
:100843007312000EE5126003120473E51560E712DC
:04085300000E80E231
:03000B000202F1FD
:1002F100C0E0C0F0C083C082C0D075D000C000C0D3
:1003010002C003C004C005C006C007758C3C758AD5
:10031100B0050BE50B6414600302045AF50B050AE2
:10032100E50A643C600302042DF50A050CE50C6442
:100331003C600302042DF50C050DE50D6418600306
:1003410002042DF50D0511E511700205100514E5E6
:100351001470020513640845137005F51375140133
:10036100E50F6401450E6030E50F6403450E60281A
:10037100E50F6405450E6020E50F6407450E601822
:10038100E50F6408450E6010E50F640A450E60082C
:10039100E50F640C450E703DE511642045106003C6
:1003A10002042DF510751101050FE50F7002050E00
:1003B100640D450E7076F50E750F010509E509709E
:1003C10002050864027004E5086408705F75080797
:1003D1007509CC8057E50F6402450E703AAF0912DA
:1003E1000879BF0117E511641E4510703FF51075BE
:1003F1001101050FE50F7002050E8030C3E5119460
:100401001DE51094004025751000751101050FE5DB
:100411000F7002050E8015E511641F4510700DF572
:1004210010751101050FE50F7002050EAD09AC083D
:10043100E4FF1205C9AD0FAC0E7F051205C9120507
:10044100C3AD147F0C120804AD0D7F0412085BAD1F
:100451000C7F0712085B120857D007D006D005D0D1
:1004610004D003D002D000D0D0D082D083D0F0D03D
:02047100E03277
:0300000002067085
:0C067000787FE4F6D8FD7581230206B700
:1006FC00BC000BBE0029EF8DF084FFADF022E4CCE2
:10070C00F875F008EF2FFFEE33FEEC33FCEE9DECAA
:10071C00984005FCEE9DFE0FD5F0E9E4CEFD22EDF0
:10072C00F8F5F0EE8420D21CFEADF075F008EF2F3A
:10073C00FFED33FD4007985006D5F0F222C398FD2B
:05074C000FD5F0EA22C8
:10067C00020833E493A3F8E493A34003F68001F259
:10068C0008DFF48029E493A3F85407240CC8C3337F
:10069C00C4540F4420C8834004F456800146F6DF4E
:1006AC00E4800B010204081020408090089AE47E3C
:1006BC00019360BCA3FF543F30E509541FFEE49343
:1006CC00A360010ECF54C025E060A840B8E493A30A
:1006DC00FAE493A3F8E493A3C8C582C8CAC583CA35
:1006EC00F0A3C8C582C8CAC583CADFE9DEE780BEED
:0108B3000044
:00000001FF
